{
  "address": "0xF0ea21574C62aa063D74848875A560f01F14A996",
  "abi": [
    {
      "inputs": [
        {
          "internalType": "address",
          "name": "_positionManager",
          "type": "address"
        },
        {
          "internalType": "address",
          "name": "_stargate",
          "type": "address"
        },
        {
          "internalType": "address",
          "name": "_usdc",
          "type": "address"
        },
        {
          "internalType": "address",
          "name": "initialOwner",
          "type": "address"
        }
      ],
      "stateMutability": "nonpayable",
      "type": "constructor"
    },
    {
      "inputs": [
        {
          "internalType": "string",
          "name": "reason",
          "type": "string"
        }
      ],
      "name": "CrossChainOperationFailed",
      "type": "error"
    },
    {
      "inputs": [
        {
          "internalType": "string",
          "name": "parameter",
          "type": "string"
        }
      ],
      "name": "InvalidAddress",
      "type": "error"
    },
    {
      "inputs": [
        {
          "internalType": "address",
          "name": "token",
          "type": "address"
        },
        {
          "internalType": "address",
          "name": "expected",
          "type": "address"
        }
      ],
      "name": "InvalidToken",
      "type": "error"
    },
    {
      "inputs": [
        {
          "internalType": "address",
          "name": "owner",
          "type": "address"
        }
      ],
      "name": "OwnableInvalidOwner",
      "type": "error"
    },
    {
      "inputs": [
        {
          "internalType": "address",
          "name": "account",
          "type": "address"
        }
      ],
      "name": "OwnableUnauthorizedAccount",
      "type": "error"
    },
    {
      "inputs": [
        {
          "internalType": "address",
          "name": "token",
          "type": "address"
        }
      ],
      "name": "SafeERC20FailedOperation",
      "type": "error"
    },
    {
      "inputs": [
        {
          "internalType": "address",
          "name": "caller",
          "type": "address"
        },
        {
          "internalType": "address",
          "name": "expected",
          "type": "address"
        }
      ],
      "name": "UnauthorizedCaller",
      "type": "error"
    },
    {
      "anonymous": false,
      "inputs": [
        {
          "indexed": true,
          "internalType": "bytes32",
          "name": "messageHash",
          "type": "bytes32"
        },
        {
          "indexed": true,
          "internalType": "address",
          "name": "trader",
          "type": "address"
        },
        {
          "indexed": false,
          "internalType": "uint256",
          "name": "tokenId",
          "type": "uint256"
        },
        {
          "indexed": false,
          "internalType": "uint256",
          "name": "amount",
          "type": "uint256"
        },
        {
          "indexed": false,
          "internalType": "uint256",
          "name": "price",
          "type": "uint256"
        },
        {
          "indexed": false,
          "internalType": "bool",
          "name": "isBuy",
          "type": "bool"
        }
      ],
      "name": "OrderExecuted",
      "type": "event"
    },
    {
      "anonymous": false,
      "inputs": [
        {
          "indexed": true,
          "internalType": "address",
          "name": "previousOwner",
          "type": "address"
        },
        {
          "indexed": true,
          "internalType": "address",
          "name": "newOwner",
          "type": "address"
        }
      ],
      "name": "OwnershipTransferred",
      "type": "event"
    },
    {
      "inputs": [],
      "name": "owner",
      "outputs": [
        {
          "internalType": "address",
          "name": "",
          "type": "address"
        }
      ],
      "stateMutability": "view",
      "type": "function"
    },
    {
      "inputs": [],
      "name": "positionManager",
      "outputs": [
        {
          "internalType": "contract PolymarketPositionManager",
          "name": "",
          "type": "address"
        }
      ],
      "stateMutability": "view",
      "type": "function"
    },
    {
      "inputs": [
        {
          "internalType": "uint32",
          "name": "",
          "type": "uint32"
        },
        {
          "internalType": "uint64",
          "name": "",
          "type": "uint64"
        }
      ],
      "name": "processedMessages",
      "outputs": [
        {
          "internalType": "bool",
          "name": "",
          "type": "bool"
        }
      ],
      "stateMutability": "view",
      "type": "function"
    },
    {
      "inputs": [],
      "name": "renounceOwnership",
      "outputs": [],
      "stateMutability": "nonpayable",
      "type": "function"
    },
    {
      "inputs": [
        {
          "internalType": "uint16",
          "name": "_srcChainId",
          "type": "uint16"
        },
        {
          "internalType": "bytes",
          "name": "_srcAddress",
          "type": "bytes"
        },
        {
          "internalType": "uint64",
          "name": "_nonce",
          "type": "uint64"
        },
        {
          "internalType": "address",
          "name": "_token",
          "type": "address"
        },
        {
          "internalType": "uint256",
          "name": "amountLD",
          "type": "uint256"
        },
        {
          "internalType": "bytes",
          "name": "_payload",
          "type": "bytes"
        }
      ],
      "name": "sgReceive",
      "outputs": [],
      "stateMutability": "nonpayable",
      "type": "function"
    },
    {
      "inputs": [],
      "name": "stargate",
      "outputs": [
        {
          "internalType": "contract IStargate",
          "name": "",
          "type": "address"
        }
      ],
      "stateMutability": "view",
      "type": "function"
    },
    {
      "inputs": [
        {
          "internalType": "address",
          "name": "newOwner",
          "type": "address"
        }
      ],
      "name": "transferOwnership",
      "outputs": [],
      "stateMutability": "nonpayable",
      "type": "function"
    },
    {
      "inputs": [],
      "name": "usdc",
      "outputs": [
        {
          "internalType": "contract IERC20",
          "name": "",
          "type": "address"
        }
      ],
      "stateMutability": "view",
      "type": "function"
    },
    {
      "stateMutability": "payable",
      "type": "receive"
    }
  ],
  "transactionHash": "0xd2e306fcb43a18e868696d7c193985a5a6df28f655fe0802e2c739a60cce2818",
  "args": [
    "0x2365Cc50774A121368b4837f3834ab34d12d4250",
    "0xcE8CcA271Ebc0533920C83d39F417ED6A0abB7D0",
    "0x0b2C639c533813f4Aa9D7837CAf62653d097Ff85",
    "0x93c7c3f9394dEf62D2Ad0658c1c9b49919C13Ac5"
  ],
  "numDeployments": 1,
  "solcInputHash": "324630566adfc2fe3c660d323bca6a17",
  "bytecode": "0x60806040523480156200001157600080fd5b5060405162000c9138038062000c91833981016040819052620000349162000264565b806001600160a01b0381166200006557604051631e4fbdf760e01b8152600060048201526024015b60405180910390fd5b6200007081620001f7565b506001600160a01b038416620000bd57604051630b0f5aa160e11b815260206004820152601060248201526f3837b9b4ba34b7b71036b0b730b3b2b960811b60448201526064016200005c565b6001600160a01b0383166200010157604051630b0f5aa160e11b8152602060048201526008602482015267737461726761746560c01b60448201526064016200005c565b6001600160a01b0382166200014357604051630b0f5aa160e11b81526004016200005c906020808252600490820152637573646360e01b604082015260600190565b600180546001600160a01b03199081166001600160a01b038781169182179093556002805483168785161790556003805490921692851692831790915560405163095ea7b360e01b81526004810191909152600019602482015263095ea7b3906044016020604051808303816000875af1158015620001c6573d6000803e3d6000fd5b505050506040513d601f19601f82011682018060405250810190620001ec9190620002c1565b5050505050620002ec565b600080546001600160a01b038381166001600160a01b0319831681178455604051919092169283917f8be0079c531659141344cd1fd0a4f28419497f9722a3daafe3b4186f6b6457e09190a35050565b80516001600160a01b03811681146200025f57600080fd5b919050565b600080600080608085870312156200027b57600080fd5b620002868562000247565b9350620002966020860162000247565b9250620002a66040860162000247565b9150620002b66060860162000247565b905092959194509250565b600060208284031215620002d457600080fd5b81518015158114620002e557600080fd5b9392505050565b61099580620002fc6000396000f3fe60806040526004361061007f5760003560e01c8063715018a61161004e578063715018a614610155578063791b98bc1461016a5780638da5cb5b1461018a578063f2fde38b146101a857600080fd5b8063116adbf51461008b5780633e413bee146100ad5780635f2988e1146100ea5780636c099dee1461013557600080fd5b3661008657005b600080fd5b34801561009757600080fd5b506100ab6100a63660046107f5565b6101c8565b005b3480156100b957600080fd5b506003546100cd906001600160a01b031681565b6040516001600160a01b0390911681526020015b60405180910390f35b3480156100f657600080fd5b506101256101053660046108a0565b600460209081526000928352604080842090915290825290205460ff1681565b60405190151581526020016100e1565b34801561014157600080fd5b506002546100cd906001600160a01b031681565b34801561016157600080fd5b506100ab610583565b34801561017657600080fd5b506001546100cd906001600160a01b031681565b34801561019657600080fd5b506000546001600160a01b03166100cd565b3480156101b457600080fd5b506100ab6101c33660046108de565b610597565b6002546001600160a01b0316331461020d5760025460405163536dd9ef60e01b81523360048201526001600160a01b0390911660248201526044015b60405180910390fd5b6003546001600160a01b0384811691161461025257600354604051630fc746a160e01b81526001600160a01b0380861660048301529091166024820152604401610204565b61ffff8616600090815260046020908152604080832067ffffffffffffffff8816845290915290205460ff16156102cc57604051632eb95bd560e21b815260206004820152601960248201527f4d65737361676520616c72656164792070726f636573736564000000000000006044820152606401610204565b61ffff8616600090815260046020908152604080832067ffffffffffffffff8816845282528220805460ff1916600117905582518291829182918291610319919088018101908801610902565b9450945094509450945080156105765785516020870120600154604051632e3a875160e01b81526004810187905260248101869052604481018590526001600160a01b0390911690632e3a875190606401600060405180830381600087803b15801561038457600080fd5b505af1925050508015610395575060015b6104b1573d8080156103c3576040519150601f19603f3d011682016040523d82523d6000602084013e6103c8565b606091505b506003546103e0906001600160a01b0316888b6105d5565b60208101516330b86e7f60e01b6001600160e01b031982160161045757604051632eb95bd560e21b815260206004820152602860248201527f42757920706f736974696f6e206661696c65643a20496e73756666696369656e6044820152677442616c616e636560c01b6064820152608401610204565b604051632eb95bd560e21b815260206004820152602860248201527f42757920706f736974696f6e206661696c65642077697468206c6f772d6c657660448201526732b61032b93937b960c11b6064820152608401610204565b600154604051636f12ba7f60e01b81526001600160a01b038881166004830152602482018890526044820187905290911690636f12ba7f90606401600060405180830381600087803b15801561050657600080fd5b505af115801561051a573d6000803e3d6000fd5b5050604080518881526020810188905290810186905284151560608201526001600160a01b03891692508391507f1844eda299713c8d909e81545e221a56eef671163ec968128d6b78139b84a60d9060800160405180910390a3505b5050505050505050505050565b61058b61062c565b6105956000610659565b565b61059f61062c565b6001600160a01b0381166105c957604051631e4fbdf760e01b815260006004820152602401610204565b6105d281610659565b50565b604080516001600160a01b038416602482015260448082018490528251808303909101815260649091019091526020810180516001600160e01b031663a9059cbb60e01b1790526106279084906106a9565b505050565b6000546001600160a01b031633146105955760405163118cdaa760e01b8152336004820152602401610204565b600080546001600160a01b038381166001600160a01b0319831681178455604051919092169283917f8be0079c531659141344cd1fd0a4f28419497f9722a3daafe3b4186f6b6457e09190a35050565b600080602060008451602086016000885af1806106cc576040513d6000823e3d81fd5b50506000513d915081156106e45780600114156106f1565b6001600160a01b0384163b155b1561071a57604051635274afe760e01b81526001600160a01b0385166004820152602401610204565b50505050565b634e487b7160e01b600052604160045260246000fd5b600082601f83011261074757600080fd5b813567ffffffffffffffff8082111561076257610762610720565b604051601f8301601f19908116603f0116810190828211818310171561078a5761078a610720565b816040528381528660208588010111156107a357600080fd5b836020870160208301376000602085830101528094505050505092915050565b803567ffffffffffffffff811681146107db57600080fd5b919050565b6001600160a01b03811681146105d257600080fd5b60008060008060008060c0878903121561080e57600080fd5b863561ffff8116811461082057600080fd5b9550602087013567ffffffffffffffff8082111561083d57600080fd5b6108498a838b01610736565b965061085760408a016107c3565b955060608901359150610869826107e0565b9093506080880135925060a0880135908082111561088657600080fd5b5061089389828a01610736565b9150509295509295509295565b600080604083850312156108b357600080fd5b823563ffffffff811681146108c757600080fd5b91506108d5602084016107c3565b90509250929050565b6000602082840312156108f057600080fd5b81356108fb816107e0565b9392505050565b600080600080600060a0868803121561091a57600080fd5b8551610925816107e0565b809550506020860151935060408601519250606086015191506080860151801515811461095157600080fd5b80915050929550929590935056fea2646970667358221220f9efe2c86decc9a1420b304c4ce6d38a99df25e364fa18bea761b5e648138aa964736f6c63430008160033",
  "devdoc": {
    "errors": {
      "OwnableInvalidOwner(address)": [
        {
          "details": "The owner is not a valid owner account. (eg. `address(0)`)"
        }
      ],
      "OwnableUnauthorizedAccount(address)": [
        {
          "details": "The caller account is not authorized to perform an operation."
        }
      ],
      "SafeERC20FailedOperation(address)": [
        {
          "details": "An operation with an ERC-20 token failed."
        }
      ]
    },
    "kind": "dev",
    "methods": {
      "owner()": {
        "details": "Returns the address of the current owner."
      },
      "renounceOwnership()": {
        "details": "Leaves the contract without owner. It will not be possible to call `onlyOwner` functions. Can only be called by the current owner. NOTE: Renouncing ownership will leave the contract without an owner, thereby disabling any functionality that is only available to the owner."
      },
      "transferOwnership(address)": {
        "details": "Transfers ownership of the contract to a new account (`newOwner`). Can only be called by the current owner."
      }
    },
    "version": 1
  },
  "userdoc": {
    "kind": "user",
    "methods": {},
    "version": 1
  },
  "storageLayout": {
    "storage": [
      {
        "astId": 1595,
        "contract": "contracts/LayerZeroPolyTrader.sol:LayerZeroPolyTrader",
        "label": "_owner",
        "offset": 0,
        "slot": "0",
        "type": "t_address"
      },
      {
        "astId": 3365,
        "contract": "contracts/LayerZeroPolyTrader.sol:LayerZeroPolyTrader",
        "label": "positionManager",
        "offset": 0,
        "slot": "1",
        "type": "t_contract(PolymarketPositionManager)4478"
      },
      {
        "astId": 3368,
        "contract": "contracts/LayerZeroPolyTrader.sol:LayerZeroPolyTrader",
        "label": "stargate",
        "offset": 0,
        "slot": "2",
        "type": "t_contract(IStargate)2875"
      },
      {
        "astId": 3371,
        "contract": "contracts/LayerZeroPolyTrader.sol:LayerZeroPolyTrader",
        "label": "usdc",
        "offset": 0,
        "slot": "3",
        "type": "t_contract(IERC20)2067"
      },
      {
        "astId": 3377,
        "contract": "contracts/LayerZeroPolyTrader.sol:LayerZeroPolyTrader",
        "label": "processedMessages",
        "offset": 0,
        "slot": "4",
        "type": "t_mapping(t_uint32,t_mapping(t_uint64,t_bool))"
      }
    ],
    "types": {
      "t_address": {
        "encoding": "inplace",
        "label": "address",
        "numberOfBytes": "20"
      },
      "t_bool": {
        "encoding": "inplace",
        "label": "bool",
        "numberOfBytes": "1"
      },
      "t_contract(IERC20)2067": {
        "encoding": "inplace",
        "label": "contract IERC20",
        "numberOfBytes": "20"
      },
      "t_contract(IStargate)2875": {
        "encoding": "inplace",
        "label": "contract IStargate",
        "numberOfBytes": "20"
      },
      "t_contract(PolymarketPositionManager)4478": {
        "encoding": "inplace",
        "label": "contract PolymarketPositionManager",
        "numberOfBytes": "20"
      },
      "t_mapping(t_uint32,t_mapping(t_uint64,t_bool))": {
        "encoding": "mapping",
        "key": "t_uint32",
        "label": "mapping(uint32 => mapping(uint64 => bool))",
        "numberOfBytes": "32",
        "value": "t_mapping(t_uint64,t_bool)"
      },
      "t_mapping(t_uint64,t_bool)": {
        "encoding": "mapping",
        "key": "t_uint64",
        "label": "mapping(uint64 => bool)",
        "numberOfBytes": "32",
        "value": "t_bool"
      },
      "t_uint32": {
        "encoding": "inplace",
        "label": "uint32",
        "numberOfBytes": "4"
      },
      "t_uint64": {
        "encoding": "inplace",
        "label": "uint64",
        "numberOfBytes": "8"
      }
    }
  }
}