{
  "address": "0xec6E1a67C44c9d90C809d316b6C9151fe54D1025",
  "abi": [
    {
      "inputs": [
        {
          "internalType": "address",
          "name": "_stargate",
          "type": "address"
        },
        {
          "internalType": "address",
          "name": "_usdc",
          "type": "address"
        },
        {
          "internalType": "uint32",
          "name": "_dstEid",
          "type": "uint32"
        },
        {
          "internalType": "address",
          "name": "initialOwner",
          "type": "address"
        }
      ],
      "stateMutability": "nonpayable",
      "type": "constructor"
    },
    {
      "inputs": [
        {
          "internalType": "uint256",
          "name": "required",
          "type": "uint256"
        },
        {
          "internalType": "uint256",
          "name": "provided",
          "type": "uint256"
        }
      ],
      "name": "InsufficientNativeFee",
      "type": "error"
    },
    {
      "inputs": [
        {
          "internalType": "string",
          "name": "parameter",
          "type": "string"
        }
      ],
      "name": "InvalidAddress",
      "type": "error"
    },
    {
      "inputs": [
        {
          "internalType": "uint256",
          "name": "amount",
          "type": "uint256"
        },
        {
          "internalType": "string",
          "name": "reason",
          "type": "string"
        }
      ],
      "name": "InvalidAmount",
      "type": "error"
    },
    {
      "inputs": [
        {
          "internalType": "address",
          "name": "owner",
          "type": "address"
        }
      ],
      "name": "OwnableInvalidOwner",
      "type": "error"
    },
    {
      "inputs": [
        {
          "internalType": "address",
          "name": "account",
          "type": "address"
        }
      ],
      "name": "OwnableUnauthorizedAccount",
      "type": "error"
    },
    {
      "inputs": [],
      "name": "RefundFailed",
      "type": "error"
    },
    {
      "inputs": [
        {
          "internalType": "address",
          "name": "token",
          "type": "address"
        }
      ],
      "name": "SafeERC20FailedOperation",
      "type": "error"
    },
    {
      "inputs": [],
      "name": "StargateOperationFailed",
      "type": "error"
    },
    {
      "anonymous": false,
      "inputs": [
        {
          "indexed": false,
          "internalType": "uint32",
          "name": "oldDstEid",
          "type": "uint32"
        },
        {
          "indexed": false,
          "internalType": "uint32",
          "name": "newDstEid",
          "type": "uint32"
        }
      ],
      "name": "DestinationEndpointUpdated",
      "type": "event"
    },
    {
      "anonymous": false,
      "inputs": [
        {
          "indexed": true,
          "internalType": "bytes32",
          "name": "messageHash",
          "type": "bytes32"
        },
        {
          "indexed": true,
          "internalType": "address",
          "name": "trader",
          "type": "address"
        },
        {
          "indexed": false,
          "internalType": "uint256",
          "name": "tokenId",
          "type": "uint256"
        },
        {
          "indexed": false,
          "internalType": "uint256",
          "name": "amount",
          "type": "uint256"
        },
        {
          "indexed": false,
          "internalType": "uint256",
          "name": "price",
          "type": "uint256"
        },
        {
          "indexed": false,
          "internalType": "uint256",
          "name": "usdcAmount",
          "type": "uint256"
        },
        {
          "indexed": false,
          "internalType": "bool",
          "name": "isBuy",
          "type": "bool"
        }
      ],
      "name": "OrderSent",
      "type": "event"
    },
    {
      "anonymous": false,
      "inputs": [
        {
          "indexed": true,
          "internalType": "address",
          "name": "previousOwner",
          "type": "address"
        },
        {
          "indexed": true,
          "internalType": "address",
          "name": "newOwner",
          "type": "address"
        }
      ],
      "name": "OwnershipTransferred",
      "type": "event"
    },
    {
      "anonymous": false,
      "inputs": [
        {
          "indexed": false,
          "internalType": "uint256",
          "name": "amount",
          "type": "uint256"
        }
      ],
      "name": "StargateApprovalUpdated",
      "type": "event"
    },
    {
      "inputs": [],
      "name": "dstEid",
      "outputs": [
        {
          "internalType": "uint32",
          "name": "",
          "type": "uint32"
        }
      ],
      "stateMutability": "view",
      "type": "function"
    },
    {
      "inputs": [],
      "name": "owner",
      "outputs": [
        {
          "internalType": "address",
          "name": "",
          "type": "address"
        }
      ],
      "stateMutability": "view",
      "type": "function"
    },
    {
      "inputs": [],
      "name": "renounceOwnership",
      "outputs": [],
      "stateMutability": "nonpayable",
      "type": "function"
    },
    {
      "inputs": [
        {
          "internalType": "uint256",
          "name": "tokenId",
          "type": "uint256"
        },
        {
          "internalType": "uint256",
          "name": "amount",
          "type": "uint256"
        },
        {
          "internalType": "uint256",
          "name": "price",
          "type": "uint256"
        },
        {
          "internalType": "bytes",
          "name": "_options",
          "type": "bytes"
        }
      ],
      "name": "sendBuyOrder",
      "outputs": [],
      "stateMutability": "payable",
      "type": "function"
    },
    {
      "inputs": [
        {
          "internalType": "uint32",
          "name": "_dstEid",
          "type": "uint32"
        }
      ],
      "name": "setDestinationEndpoint",
      "outputs": [],
      "stateMutability": "nonpayable",
      "type": "function"
    },
    {
      "inputs": [],
      "name": "stargate",
      "outputs": [
        {
          "internalType": "contract IStargate",
          "name": "",
          "type": "address"
        }
      ],
      "stateMutability": "view",
      "type": "function"
    },
    {
      "inputs": [
        {
          "internalType": "address",
          "name": "newOwner",
          "type": "address"
        }
      ],
      "name": "transferOwnership",
      "outputs": [],
      "stateMutability": "nonpayable",
      "type": "function"
    },
    {
      "inputs": [],
      "name": "updateStargateApproval",
      "outputs": [],
      "stateMutability": "nonpayable",
      "type": "function"
    },
    {
      "inputs": [],
      "name": "usdc",
      "outputs": [
        {
          "internalType": "contract IERC20",
          "name": "",
          "type": "address"
        }
      ],
      "stateMutability": "view",
      "type": "function"
    },
    {
      "stateMutability": "payable",
      "type": "receive"
    }
  ],
  "transactionHash": "0xb241642a5cd9119069b21a1791ffdc9cae251856fa116669235b94689f94a0f1",
  "args": [
    "0x9Aa02D4Fae7F58b8E8f34c66E756cC734DAc7fe4",
    "0x3c499c542cEF5E3811e1192ce70d8cC03d5c3359",
    30109,
    "0x93c7c3f9394dEf62D2Ad0658c1c9b49919C13Ac5"
  ],
  "numDeployments": 1,
  "solcInputHash": "c00f43bf3918536aba18bae0b91a20f4",
  "bytecode": "0x60806040523480156200001157600080fd5b50604051620012bd380380620012bd833981016040819052620000349162000259565b806001600160a01b0381166200006557604051631e4fbdf760e01b8152600060048201526024015b60405180910390fd5b6200007081620001ec565b506001600160a01b038416620000b557604051630b0f5aa160e11b8152602060048201526008602482015267737461726761746560c01b60448201526064016200005c565b6001600160a01b038316620000f757604051630b0f5aa160e11b81526004016200005c906020808252600490820152637573646360e01b604082015260600190565b600180546001600160a01b0319166001600160a01b03868116918217909255600280548684166001600160c01b031990911617600160a01b63ffffffff871602179081905560405163095ea7b360e01b8152600481019290925260001960248301529091169063095ea7b3906044016020604051808303816000875af115801562000186573d6000803e3d6000fd5b505050506040513d601f19601f82011682018060405250810190620001ac9190620002c0565b5060405160001981527f3a7994b06260f6158bdd5e3e42553d4f686b7f8ee8868dccab6f016c73e59dcc9060200160405180910390a150505050620002eb565b600080546001600160a01b038381166001600160a01b0319831681178455604051919092169283917f8be0079c531659141344cd1fd0a4f28419497f9722a3daafe3b4186f6b6457e09190a35050565b80516001600160a01b03811681146200025457600080fd5b919050565b600080600080608085870312156200027057600080fd5b6200027b856200023c565b93506200028b602086016200023c565b9250604085015163ffffffff81168114620002a557600080fd5b9150620002b5606086016200023c565b905092959194509250565b600060208284031215620002d357600080fd5b81518015158114620002e457600080fd5b9392505050565b610fc280620002fb6000396000f3fe60806040526004361061008a5760003560e01c8063715018a611610059578063715018a614610128578063734ff5f31461013d5780638da5cb5b14610176578063e121d2e214610194578063f2fde38b146101a957600080fd5b80633e413bee14610096578063522bd7c1146100d35780635ce688bd146100f55780636c099dee1461010857600080fd5b3661009157005b600080fd5b3480156100a257600080fd5b506002546100b6906001600160a01b031681565b6040516001600160a01b0390911681526020015b60405180910390f35b3480156100df57600080fd5b506100f36100ee366004610a9d565b6101c9565b005b6100f3610103366004610aca565b61023a565b34801561011457600080fd5b506001546100b6906001600160a01b031681565b34801561013457600080fd5b506100f3610786565b34801561014957600080fd5b5060025461016190600160a01b900463ffffffff1681565b60405163ffffffff90911681526020016100ca565b34801561018257600080fd5b506000546001600160a01b03166100b6565b3480156101a057600080fd5b506100f361079a565b3480156101b557600080fd5b506100f36101c4366004610b57565b6108ce565b6101d161090c565b6002805463ffffffff838116600160a01b81810263ffffffff60a01b1985161790945560408051949093049091168084526020840191909152917f191f7be74622723364c680157f0f43b7285e419a349b8a76f20dd19afa1ca4de910160405180910390a15050565b6000620f424061024a8587610b96565b6102549190610bb3565b9050806000036102c457806040516319327c8160e11b81526004016102bb9181526040602082018190526022908201527f5553444320616d6f756e74206d7573742062652067726561746572207468616e606082015261020360f41b608082015260a00190565b60405180910390fd5b6002546102dc906001600160a01b0316333084610939565b600254600154604051636eb1769f60e11b81523060048201526001600160a01b039182166024820152600092919091169063dd62ed3e90604401602060405180830381865afa158015610333573d6000803e3d6000fd5b505050506040513d601f19601f820116820180604052508101906103579190610bd5565b90508181101561048c5760025460015460405163095ea7b360e01b81526001600160a01b0391821660048201526000602482015291169063095ea7b3906044016020604051808303816000875af11580156103b6573d6000803e3d6000fd5b505050506040513d601f19601f820116820180604052508101906103da9190610bee565b5060025460015460405163095ea7b360e01b81526001600160a01b039182166004820152600019602482015291169063095ea7b3906044016020604051808303816000875af1158015610431573d6000803e3d6000fd5b505050506040513d601f19601f820116820180604052508101906104559190610bee565b5060405160001981527f3a7994b06260f6158bdd5e3e42553d4f686b7f8ee8868dccab6f016c73e59dcc9060200160405180910390a15b604080513360208201529081018890526060810187905260808101869052600160a082015260009060c00160408051808303601f1901815260e08301909152600254600160a01b900463ffffffff16825291506000906020810130815260200185815260200185815260200187878080601f01602080910402602001604051908101604052809392919081815260200183838082843760009201829052509385525050506020808301869052604080518381529182018152928301526001549151633b6f743b60e01b8152929350916001600160a01b0390911690633b6f743b9061057d9085908590600401610cf5565b6040805180830381865afa158015610599573d6000803e3d6000fd5b505050506040513d601f19601f820116820180604052508101906105bd9190610da3565b80519091503410156105ee5780516040516352cdf57160e11b815260048101919091523460248201526044016102bb565b82516020840120600154825160405163cbef2aa960e01b81526001600160a01b039092169163cbef2aa9919061062c90879087903390600401610dbf565b60006040518083038185885af19350505050801561066c57506040513d6000823e601f3d908101601f191682016040526106699190810190610ebd565b60015b6106a057600254610687906001600160a01b031633886109a6565b6040516342c3d46160e01b815260040160405180910390fd5b5050604080518d8152602081018d90529081018b9052606081018890526001608082015233915082907fe719b0da8eb9ec7efd46e47c46a286c622e07b201c3b8a87c84b5c6931b7a67e9060a00160405180910390a381516000906107059034610f79565b9050801561077857604051600090339083908381818185875af1925050503d806000811461074f576040519150601f19603f3d011682016040523d82523d6000602084013e610754565b606091505b505090508061077657604051633c31275160e21b815260040160405180910390fd5b505b505050505050505050505050565b61078e61090c565b61079860006109dc565b565b6107a261090c565b60025460015460405163095ea7b360e01b81526001600160a01b0391821660048201526000602482015291169063095ea7b3906044016020604051808303816000875af11580156107f7573d6000803e3d6000fd5b505050506040513d601f19601f8201168201806040525081019061081b9190610bee565b5060025460015460405163095ea7b360e01b81526001600160a01b039182166004820152600019602482015291169063095ea7b3906044016020604051808303816000875af1158015610872573d6000803e3d6000fd5b505050506040513d601f19601f820116820180604052508101906108969190610bee565b5060405160001981527f3a7994b06260f6158bdd5e3e42553d4f686b7f8ee8868dccab6f016c73e59dcc9060200160405180910390a1565b6108d661090c565b6001600160a01b03811661090057604051631e4fbdf760e01b8152600060048201526024016102bb565b610909816109dc565b50565b6000546001600160a01b031633146107985760405163118cdaa760e01b81523360048201526024016102bb565b6040516001600160a01b0384811660248301528381166044830152606482018390526109a09186918216906323b872dd906084015b604051602081830303815290604052915060e01b6020820180516001600160e01b038381831617835250505050610a2c565b50505050565b6040516001600160a01b038381166024830152604482018390526109d791859182169063a9059cbb9060640161096e565b505050565b600080546001600160a01b038381166001600160a01b0319831681178455604051919092169283917f8be0079c531659141344cd1fd0a4f28419497f9722a3daafe3b4186f6b6457e09190a35050565b600080602060008451602086016000885af180610a4f576040513d6000823e3d81fd5b50506000513d91508115610a67578060011415610a74565b6001600160a01b0384163b155b156109a057604051635274afe760e01b81526001600160a01b03851660048201526024016102bb565b600060208284031215610aaf57600080fd5b813563ffffffff81168114610ac357600080fd5b9392505050565b600080600080600060808688031215610ae257600080fd5b853594506020860135935060408601359250606086013567ffffffffffffffff80821115610b0f57600080fd5b818801915088601f830112610b2357600080fd5b813581811115610b3257600080fd5b896020828501011115610b4457600080fd5b9699959850939650602001949392505050565b600060208284031215610b6957600080fd5b81356001600160a01b0381168114610ac357600080fd5b634e487b7160e01b600052601160045260246000fd5b8082028115828204841417610bad57610bad610b80565b92915050565b600082610bd057634e487b7160e01b600052601260045260246000fd5b500490565b600060208284031215610be757600080fd5b5051919050565b600060208284031215610c0057600080fd5b81518015158114610ac357600080fd5b634e487b7160e01b600052604160045260246000fd5b60005b83811015610c41578181015183820152602001610c29565b50506000910152565b60008151808452610c62816020860160208601610c26565b601f01601f19169290920160200192915050565b63ffffffff81511682526020810151602083015260408101516040830152606081015160608301526000608082015160e06080850152610cb960e0850182610c4a565b905060a083015184820360a0860152610cd28282610c4a565b91505060c083015184820360c0860152610cec8282610c4a565b95945050505050565b604081526000610d086040830185610c76565b905082151560208301529392505050565b6040805190810167ffffffffffffffff81118282101715610d3c57610d3c610c10565b60405290565b604051601f8201601f1916810167ffffffffffffffff81118282101715610d6b57610d6b610c10565b604052919050565b600060408284031215610d8557600080fd5b610d8d610d19565b9050815181526020820151602082015292915050565b600060408284031215610db557600080fd5b610ac38383610d73565b608081526000610dd26080830186610c76565b8451602084810191909152909401516040830152506001600160a01b0391909116606090910152919050565b600060408284031215610e1057600080fd5b610e18610d19565b9050815168ffffffffffffffffff81168114610e3357600080fd5b815260208281015167ffffffffffffffff80821115610e5157600080fd5b818501915085601f830112610e6557600080fd5b815181811115610e7757610e77610c10565b610e89601f8201601f19168501610d42565b91508082528684828501011115610e9f57600080fd5b610eae81858401868601610c26565b50808385015250505092915050565b600080600083850360e0811215610ed357600080fd5b6080811215610ee157600080fd5b506040516060810167ffffffffffffffff8282108183111715610f0657610f06610c10565b8160405286518352602087015191508082168214610f2357600080fd5b816020840152610f368860408901610d73565b6040840152829550610f4b8860808901610d73565b945060c0870151925080831115610f6157600080fd5b5050610f6f86828701610dfe565b9150509250925092565b81810381811115610bad57610bad610b8056fea26469706673582212200cc6b4ae837b883ca8e3a64a90e8a6aea4a020d98978815971cc4bcff129a84664736f6c63430008160033",
  "devdoc": {
    "errors": {
      "OwnableInvalidOwner(address)": [
        {
          "details": "The owner is not a valid owner account. (eg. `address(0)`)"
        }
      ],
      "OwnableUnauthorizedAccount(address)": [
        {
          "details": "The caller account is not authorized to perform an operation."
        }
      ],
      "SafeERC20FailedOperation(address)": [
        {
          "details": "An operation with an ERC-20 token failed."
        }
      ]
    },
    "kind": "dev",
    "methods": {
      "owner()": {
        "details": "Returns the address of the current owner."
      },
      "renounceOwnership()": {
        "details": "Leaves the contract without owner. It will not be possible to call `onlyOwner` functions. Can only be called by the current owner. NOTE: Renouncing ownership will leave the contract without an owner, thereby disabling any functionality that is only available to the owner."
      },
      "transferOwnership(address)": {
        "details": "Transfers ownership of the contract to a new account (`newOwner`). Can only be called by the current owner."
      }
    },
    "version": 1
  },
  "userdoc": {
    "kind": "user",
    "methods": {},
    "version": 1
  },
  "storageLayout": {
    "storage": [
      {
        "astId": 1216,
        "contract": "contracts/LayerZeroPolyRouter.sol:LayerZeroPolyRouter",
        "label": "_owner",
        "offset": 0,
        "slot": "0",
        "type": "t_address"
      },
      {
        "astId": 2349,
        "contract": "contracts/LayerZeroPolyRouter.sol:LayerZeroPolyRouter",
        "label": "stargate",
        "offset": 0,
        "slot": "1",
        "type": "t_contract(IStargate)2307"
      },
      {
        "astId": 2352,
        "contract": "contracts/LayerZeroPolyRouter.sol:LayerZeroPolyRouter",
        "label": "usdc",
        "offset": 0,
        "slot": "2",
        "type": "t_contract(IERC20)1523"
      },
      {
        "astId": 2354,
        "contract": "contracts/LayerZeroPolyRouter.sol:LayerZeroPolyRouter",
        "label": "dstEid",
        "offset": 20,
        "slot": "2",
        "type": "t_uint32"
      }
    ],
    "types": {
      "t_address": {
        "encoding": "inplace",
        "label": "address",
        "numberOfBytes": "20"
      },
      "t_contract(IERC20)1523": {
        "encoding": "inplace",
        "label": "contract IERC20",
        "numberOfBytes": "20"
      },
      "t_contract(IStargate)2307": {
        "encoding": "inplace",
        "label": "contract IStargate",
        "numberOfBytes": "20"
      },
      "t_uint32": {
        "encoding": "inplace",
        "label": "uint32",
        "numberOfBytes": "4"
      }
    }
  }
}